:0600000000308A00122806
:10000800FF00030883120313E8000408E9000A0844
:10001800EA007E08EB000A128A11902C4530840011
:100028005F300A128A1127200A128A118317713049
:1000380084007E300A128A1127200A128A1183014D
:100048000A128A112F2864008001840A0406031901
:100058000034040628280A128A1175230A128A1104
:100068000A128A11AA240A128A110A128A11212252
:100078000A128A110A128A11AA230A128A118312F1
:1000880003130B178B170A30DF000030E000003035
:100098000A128A1173240A128A1103108312031395
:1000A800003003180130DF0001300A128A1155248C
:1000B8000A128A1101300A128A11DE230A128A11E1
:1000C800031083120313003003180130DF000230DD
:1000D8000A128A1155240A128A110A300A128A1140
:1000E800DE230A128A1100300A128A11C1220A126A
:1000F8008A11003A031981288228F42909308312C9
:100108000313DF0001300A128A1155240A128A11DA
:1001180003300A128A1103230A128A118312031365
:100128005F08C701C7076008C801C8070030480250
:10013800031DA0280B304702031CA328A428AB28C2
:100148002B300A128A1108240A128A11BF282D306E
:100158000A128A1108240A128A1102300A128A1114
:1001680003230A128A11831203135F08C701C70702
:100178006008C801C8078312031301300310C80CB4
:10018800C70CFF3E031DC2286430E1000030E200C6
:100198004708DF01DF074808E001E0070A128A1173
:1001A80077220A128A11831203135F08C501C50753
:1001B8006008C601C607450830380A128A110824A3
:1001C8000A128A110A3083120313E1000030E20098
:1001D8004708DF01DF074808E001E0070A128A1133
:1001E80077220A128A11831203135F08C501C50713
:1001F8006008C601C6070A30E1000030E200450881
:10020800DF01DF074608E001E0070A128A113D23F3
:100218000A128A11831203135F08C501C507600813
:10022800C601C607450830380A128A1108240A127E
:100238008A112E300A128A1108240A128A110A30E9
:1002480083120313E1000030E2004708DF01DF07F3
:100258004808E001E0070A128A113D230A128A11B0
:10026800831203135F08C501C5076008C601C607E6
:10027800450830380A128A1108240A128A115630A1
:100288000A128A1108240A128A1104300A128A11E1
:1002980003230A128A11831203135F08C701C707D1
:1002A8006008C801C8076430E1000030E200470870
:1002B800DF01DF074808E001E0070A128A11772208
:1002C8000A128A11831203135F08C501C507600863
:1002D800C601C6070A30DF0002300A128A11552407
:1002E8000A128A1183120313450830380A128A1138
:1002F80008240A128A110A3083120313E10000301D
:10030800E2004708DF01DF074808E001E0070A12BA
:100318008A1177220A128A11831203135F08C50112
:10032800C5076008C601C6070A30E1000030E200D0
:100338004508DF01DF074608E001E0070A128A11D5
:100348003D230A128A11831203135F08C501C507EA
:100358006008C601C607450830380A128A11082401
:100368000A128A112E300A128A1108240A128A11D6
:100378000A3083120313E1000030E2004708DF016E
:10038800DF074808E001E0070A128A113D230A1234
:100398008A11831203135F08C501C5076008C601E7
:1003A800C607450830380A128A1108240A128A1129
:1003B8006D300A128A1108240A128A1141300A1271
:1003C8008A1108240A128A11D03083120313DF001D
:1003D8000730E00000300A128A1173240A128A11C9
:0803E80077280A128A1112287D
:10040000FE00FE1F082A83137E18831700080800C9
:100410000408FE0002308A007E0882070034563449
:100420006F346C3474346134673465343A34003476
:10043000433475347234723465346E3474343A34FF
:10044000003400300A128A11B8240A128A110A12E2
:100450008A11C6240A128A11831203132130E00084
:100460007630DF00DF0B322AE00B322A64003030B6
:100470000A128A112F240A128A11831203130730D9
:10048000E0007D30DF00DF0B432AE00B432A3030F1
:100490000A128A112F240A128A11831203131430AC
:1004A000E0007930DF00DF0B532AE00B532A582A93
:1004B00030300A128A112F240A128A1138300A1297
:1004C0008A112F240A128A110C300A128A112F2441
:1004D0000A128A1101300A128A112F240A128A1173
:1004E00006300A128A112F240A128A1108000030DD
:1004F000E4000030E500620861040319802A812AC3
:10050000B92AE3010314E30D902A01300310E10D31
:10051000E20DFF3E031D862A0130E6006608E30770
:10052000E21F932A942A852A01300310E40DE50D79
:10053000FF3E031D952A62086002031DA12A61087F
:100540005F02031CA42AA52AAC2A6108DF02620804
:10055000031CE003E002641401300310E20CE10C20
:10056000FF3E031DAD2A0130E302031DB82AB92A5C
:10057000942A6408DF01DF076508E001E007C02A6C
:10058000080083120313DF005F088313713E8400A9
:100590000008013A031DCD2ACE2AFD2A5F08E0009B
:1005A0006007553E84000008E10001308407000820
:1005B000E20061085D02E3006208031C620A5E0259
:1005C000E4005F08E50065074D3E84000008E60092
:1005D000013084070008E70064086702031DF22A5F
:1005E000630866020318F52AF62AFD2A0330E000A4
:1005F0005F08713E8400600880005F08713E8400DF
:100600000008022B080083120313E100E330E2002C
:1006100062089F0561088313E20001300310E20DB8
:10062000FF3E031D0E2B0310620DE30063089F04C1
:100630002730E300F530E200E20B1C2BE30B1C2B10
:10064000831203139F14242B9F18272B282B242B52
:100650001E08E200E301083084000310E20DE30D00
:10066000840B2D2B831603131E08831203136204BD
:10067000DF006308E0003C2B0800620861040319F6
:10068000422B432B732BE3010314E30D522B013058
:100690000310E10DE20DFF3E031D482B0130E40085
:1006A0006408E307E21F552B562B472B62086002B4
:1006B000031D5C2B61085F02031C5F2B602B662B04
:1006C0006108DF026208031CE003E002013003104E
:1006D000E20CE10CFF3E031D672B0130E302031D1A
:1006E000722B732B562B742B08001C3083160317A8
:1006F00088000310003003180130890083120317AB
:100700008713881303108316031300300318013076
:100710008700031083120313003003180130870091
:1007200003108316031300300318013086000310F2
:100730008312031300300318013086002C30831617
:1007400003138500831203131F171F14831603134B
:100750009F170800031083120313003003180130A1
:10076000DF000310003003180130DF00B72B5F08F3
:100770008313E0006007553E840000308000840A47
:10078000003080000230E0005F08713E84006008A5
:1007900080005F08E00060074D3E8400003080006C
:1007A000840A003080000130E0006008DF07043078
:1007B0005F02031CDC2BDD2BB72B08008312031315
:1007C000DF000030E0000030E100FA2B5F08600736
:1007D0000A128A1109220A128A110A128A1108249D
:1007E0000A128A11831203130130E0070318E10A89
:1007F0000030E1075F08831360070A128A1109229B
:100800000A128A110038031D062C072CE62B08005B
:1008100083120313E2000A128A11D1240A128A11E8
:1008200083120313620883130A128A11B8240A126E
:100830008A110A128A11CD240A128A118312031313
:100840000630E4003030E300E30B242CE40B242CCE
:1008500064000A128A11BF240A128A110800831246
:100860000313E1000A128A11C6240A128A118312A4
:100870000313610883130A128A11B8240A128A1119
:100880000A128A11CD240A128A1183120313073027
:10089000E3007D30E200E20B4B2CE30B4B2C0A1201
:1008A0008A11BF240A128A110800E000600883132D
:1008B000013A031D5C2C5D2C652C5F08803E0A12FA
:1008C0008A112F240A128A11722C6008023A031D21
:1008D0006A2C6B2C722C5F08C03E0A128A112F24DE
:1008E0000A128A110800E10061088313E20062071E
:1008F000553E84005D088000840A5E08800061081F
:10090000713E840080010314800D6108E2006207DB
:100910004D3E84005F088000840A60088000080063
:100920000C1C932C942C9A2C0130DD070318DE0A42
:100930000030DE07FC308F0017308E000C106B0883
:10094000FE006A088A006908840068088300FF0EB8
:100950007F0E0900FC30831203138F0017308E00C6
:1009600090010314900D0C10831603130C1408004F
:1009700083120313E5006508831387000800FD3028
:1009800083120313E500650886050800FE30831214
:100990000313E40064088605080083120313861419
:0609A00008000614080027
:04400E00D404FF3E99
:00000001FF
