:020000000F28C7
:10000800FF0003088312AA000408AB000A08AC002A
:100018007E08AD00DF29623084000030FE00F03039
:10002800FF0020208000840A0408643A0319242869
:10003800FF0A0319FE0A15287E088A007F08820035
:100048006430840070302F208317713084007E3034
:100058002F208301372864008001840A04060319CD
:1000680000340406302886215522102233218312B9
:100078000B178B170A30A1000030A2000330A6210D
:100088006C2266220330F220033A031D4C284D28C7
:10009800EE280A308312A1000030A2000330A62106
:1000A800F921013A031D59285A28EC2824228312E1
:1000B800A0002008E3006208013A031D64286528AF
:1000C80078286308023A031D6A286B287828883044
:1000D800A1001330A2000030A621031083120030C3
:1000E80003180130FB0083280030F220033A031D77
:1000F8007E287F2883286C22662200304A228312B9
:100108006208023A031D89288A2897286308013A59
:10011800031D8F28902897288830A1001330A2004B
:100128000130A621A5280130F220033A031D9D289D
:100138009E28A52860228312FB010314FB0D0130C1
:100148004A2283126308A0002008E2006308FF3AED
:10015800031DAF28B028B2286C2266228312FB0840
:10016800031DB728E628C3218312A0002008FC003D
:10017800FD08031DC028C128CD287C08013A031DAD
:10018800C628C728CD28D030A1000730A2000230E9
:10019800A6210230F220033A031DD328D428DD28F3
:1001A80083127C08013A031DDA28DB28DD286F2238
:1001B80060228312FC08031DE228E328E6280230A7
:1001C8004A22662283127C08A0002008FD00EE283F
:1001D8006C22662246280F28023402348312A100BA
:1001E80021088313643E84000008013A031DFD289A
:1001F800FE282D292108A2002207713E840000084C
:10020800A300013084070008A40023087902A50090
:100218002408031C240A7A02A6002108A70027073D
:10022800683E84000008A800013084070008A9007F
:1002380026082902031D2229250828020318252932
:1002480026292D290330A2002108643E84002208B3
:1002580080002108643E8400000832290800031049
:100268008312003003180130A10003100030031876
:100278000130A1003F2921088313A2002207713E03
:10028800840000308000840A003080000230A20020
:100298002108643E8400220880002108A200220769
:1002A800683E840000308000840A003080000130FD
:1002B800A2002208A10704302102031C6429652931
:1002C8003F2908008312A300E330A40024089F05F7
:1002D80023088313A40001300310A40DFF3E031D5F
:1002E80070290310240DA50025089F0464303822C6
:1002F80083129F147F299F18822983297F291E082A
:1003080085290800EF30A10083168312210883167F
:10031800850511308312A10021088505DF30A10071
:1003280083168312210883168705DF308312A10004
:100338002108870583168516DF308312A10021085E
:1003480085050800A30023088313A4002407713E31
:10035800840079088000840A7A0880002308643EB3
:10036800840080010314800D2308A4002407683E3C
:10037800840021088000840A2208800008000310F5
:10038800003003180130A1000508A1002030A200A8
:100398002208A105A108031DD229D829031000307D
:1003A80003180130A100DB29A1010314A10D2108C4
:1003B8008313DE2908000C1CE229E329E92901300E
:1003C800F9070318FA0A0030FA07FC308F001730D3
:1003D8008E000C102D08FE002C088A002B088400C3
:1003E8002A088300FF0E7F0E090001306621831260
:1003F800A10038302102031C022A032A072AA2017D
:100408000314A20D0C2A0310003003180130A200B7
:10041800220883130F2A080003308312A1008316D1
:10042800831221088316850407308312990003304C
:100438008316910010309F00013083129F0008003E
:10044800003066218312A1004C302102031C2D2AA2
:100458002E2A322AA2010314A20D342A0230A20045
:1004680022088313372A0800A60003100030031857
:100478000130A700432A0130A8002808A70726084A
:100488002702031C482A492A3F2A08008312A10090
:100498000230A20021088313643E840022088000F1
:1004A8000800FC3083128F0017308E000130900056
:1004B8000C1083160C140800EF308312A1002108D9
:1004C80085050800DF308312A10021088705080090
:0A04D80083120516080087160800BD
:02400E00C430BC
:00000001FF
