:020000001028C6
:10000800FF00030883120313EA000408EB000A0840
:10001800EC007E08ED001D2CC13084000130FE008C
:100028001730FF0021208000840A0408F03A0319E1
:100038002528FF0A0319FE0A16287E088A007F0869
:1000480082002F30840053303020831775308400AD
:100058007E3030208301382864008001840A040639
:1000680003190034040631286C245F241D237924E5
:10007800DA23831203130B178B17E830D3000330EE
:10008800D4000030002400309E22033A031D4D287E
:100098004E285828FA3083120313D3000030D400B6
:0C00A80000300024462182244728102844
:10020000FE00FE1F082983137E18831700080800CC
:100210000408FE0001308A007E0882070034FE34A4
:10022000FE34FE34FE34FE34FE34FE34FE34293413
:100230002E3406340734D3349134FF340434053477
:1002400000340334083400345D344434EC348634F0
:100250008334033423343B34443407343334183484
:1002600016346C3403344034913487346B34F834AE
:1002700056341034A9340A34003411344134003473
:1002800059347F343F34883431340B3403108312B3
:100290000313003003180130D60003100030031898
:1002A0000130D5003D30372483120313D400D41A13
:1002B0005A295B29062A34303724FB305123831214
:1002C0000313D300902464299724013A0319692960
:1002D0006A296429FF305A22031083120313003065
:1002E00003180130D700832900305A2283120313E8
:1002F000D800570883133F3E84005808800001301F
:10030000D8005808D707530883135702031C8929BC
:100310008A297429A2248312031340087D06031935
:1003200092299329A1293F088313053A031D99298E
:100330009A29A129D6010314D60D4008D8005808DF
:10034000FD0056088313013A031DA729A829B629E1
:100350000310003003180130D6004108023A031D93
:10036000B229B329B629D5010314D50D5508013A90
:10037000031DBB29BC29062A0310003003180130D5
:10038000D5000530D8005808C9004008D8005808E2
:10039000CA000230D8005808CB004208D8005808DC
:1003A000CC00F129512483120313D8005808CD0042
:1003B000FF290310003003180130CD00FF2903107E
:1003C000003003180130CD00FF290310003003185E
:1003D0000130CD00FF290310003003180130CD009B
:1003E000FF294208013A0319D229033A0319D929EE
:1003F000013A0319DF29073A0319E529EB29822479
:10040000053083120313D9004A30E0220800DA00D5
:100410000310003003180130D9001430E40000301C
:10042000E500AF239024142A9724013A0319192ACE
:100430001A2A142A7F3083120313DB005B08DA05C3
:100440001430E4000030E500AF23831203135A0890
:1004500083135A22143083120313E4000030E500A2
:10046000AF2383120313580883135A2214308312C4
:100470000313E4000030E500AF23A224831203132A
:100480005A0883135123831203135806031D492A64
:100490004A2A4C2A0030592A0130DB005B08D90770
:1004A000063059020318552A562A572A0D2A0130B8
:1004B000592A080083120313E000031000300318C8
:1004C0000130E2000310003003180130E100682A17
:1004D000E01F6B2A6C2A6E2AAA246F2A9D24A62468
:1004E000831203130310E20D9724003A0319792AAB
:1004F0007A2A7D2A831203136214831203130310D2
:10050000E00D0530E4000030E500AF23892405301C
:1005100083120313E4000030E500AF23013083129F
:100520000313E3006308E10708306102031C992A02
:100530009A2A682A620883139D2A080083120313EB
:10054000D30053088313753E84000008013A031D4D
:10055000AA2AAB2ADA2A5308D40054072F3E840073
:100560000008D500013084070008D60055087B023A
:10057000D7005608031C560A7C02D8005308D9003D
:100580005907373E84000008DA000130840700086C
:10059000DB0058085B02031DCF2A57085A020318D4
:1005A000D22AD32ADA2A0330D4005308753E8400B5
:1005B000540880005308753E84000008DF2A0800B4
:1005C000DA00363037243B3037243A3037243D3098
:1005D000372483120313DB00DB1AEF2AF02A1C2BCB
:1005E0009024F22A9724013A0319F72AF82AF22ACA
:1005F0007F305A2283120313590883135A2203109F
:1006000083120313003003180130DC00122B5C0846
:100610005A07840000085A22013083120313DD00B8
:100620005D08DC07590883135C02031C182B192B87
:10063000072BA2243530372408000310831203133C
:10064000003003180130D3000310003003180130CC
:10065000D3002A2B53088313D40054072F3E840061
:1006600000308000840A003080000230D40053083B
:10067000753E8400540880005308D4005407373E68
:10068000840000308000840A003080000130D400F3
:100690005408D30704305302031C4F2B502B2A2B32
:1006A000080083120313DC009024562B9724013A90
:1006B00003195B2B5C2B562B143083120313E400BD
:1006C0000030E500AF23831203135C0883138038E6
:1006D0005A22143083120313E4000030E500AF23E4
:1006E00000305A2283120313DD00A2241430831237
:1006F0000313E4000030E500AF23831203135D0809
:100700008313822B08000310831203130030031895
:100710000130D6008B2B56088313C13E840000089D
:10072000D80056080722003A0319972B982B9E2BC6
:10073000013083120313D7005708D5070130831205
:100740000313D7005708D6072F305602031CA92BD6
:10075000AA2B8B2B363037243A3037240800003050
:10076000E8000030E900CF2B0030E6000030E70061
:10077000B92B0130E6070318E70A0030E70700301D
:100780006702031DC52B64306602031CC82BC92BEE
:10079000B92B0130E8070318E90A0030E9076508BA
:1007A0006902031DD52B64086802031CD82BD92BC2
:1007B000B42B080083239024DD2B9724013A0319DE
:1007C000E22BE32BDD2B7E305A220310831203131E
:1007D000003003180130D300ED2B53088313013E82
:1007E00009215A22013083120313D4005408D3077D
:1007F00008305302031CFD2BFE2BED2BA224080016
:10080000D50055088313D60056072F3E84007B0879
:100810008000840A7C0880005508753E84008001B1
:100820000314800D5508D6005607373E8400530840
:100830008000840A5408800008000C1C202C212C05
:10084000272C0130FB070318FC0A0030FC07FC30A2
:100850008F0017308E000C106D08FE006C088A00A7
:100860006B0884006A088300FF0E7F0E0900831264
:100870000313DE0090243C2C9724013A0319412CE9
:10088000422C3C2C831203135E0883135A228312DA
:100890000313DF00A224831203135F088313502C79
:1008A00008000310003003180130D9000509D900F1
:1008B000F030DA005A08D90559085E2C0800FC30DF
:1008C000831203138F0017308E00013090000C103C
:1008D000831603130C1408007F30D3008316031310
:1008E000831203135308831603138105F030860027
:1008F00008000230831603138500083083120313A7
:1009000085000800013083120313D90059088606B8
:100910000800FB3083120313E40064088505080017
:10092000F73083120313E000600885050800831286
:100930000313050802399C2C0800FE30E40064080B
:10094000850508008312031385150800831203131D
:0809500005150800051408005C
:02400E00903FE1
:00000001FF
