:020000000F28C7
:10000800FF0003088312AA000408AB000A08AC002A
:100018007E08AD003B29613084007E3014201C2806
:1000280064008001840A04060319003404061528B4
:1000380055216D21C12083120B178B170A30A1009F
:100048000030A20000301E217821F4208312A00085
:100058002008FD0000308020003A03193428352894
:100068007628E8308312A1000330A20000301E2158
:1000780001308312A0002008FA070130A0002008F0
:10008800FC073C307A02031C4A284B2876280130AA
:10009800A0002008F9070130A0002008F807031085
:1000A800003003180130FA003C307902031C5D2847
:1000B8005E2876280130A0002008FB070130A00048
:1000C8002008E3070310003003180130F900183046
:1000D8007B02031C7028712876280310003003184F
:1000E8000130FB0083127D087802031C7C287D28E0
:1000F8007E287E212E280F288312A1002108831331
:10010800643E84000008013A031D8B288C28BB2814
:100118002108A2002207683E84000008A3000130DD
:1001280084070008A40023086102A5002408031C12
:10013800240A6202A6002108A7002707703E84004F
:100148000008A800013084070008A9002608290231
:10015800031DB028250828020318B328B428BB2893
:100168000330A2002108643E840022088000210890
:10017800643E84000008C028080003108312003081
:1001880003180130A1000310003003180130A1004A
:10019800CD2821088313A2002207683E840000307E
:1001A8008000840A003080000230A2002108643EEA
:1001B8008400220880002108A2002207703E8400E3
:1001C80000308000840A003080000130A20022083C
:1001D800A10704302102031CF228F328CD280800C7
:1001E80003108312003003180130A20003100030FE
:1001F80003180130A1000508A1000F30A30023084F
:10020800A10521088313A30003300310A30DFF3EAB
:10021800031D09290310230DA1000708A2000F30B0
:10022800A3002308A2052108A3002308A20422088A
:100238001D290800A30023088313A4002407683E8F
:10024800840061088000840A620880002308643EF4
:10025800840080010314800D2308A4002407703E45
:10026800840021088000840A2208800008000C1CF1
:100278003E293F2945290130E1070318E20A0030E9
:10028800E207FC308F0017308E000C102D08FE009E
:100298002C088A002B0884002A088300FF0E7F0E92
:1002A8000900073099000310831600300318013045
:1002B8009100EF308700FF30850003108312003073
:1002C800031801308500031000300318013087003F
:1002D8000800FC3083128F0017308E000130900028
:1002E8000C1083160C140800EF308312A1002108AB
:0802F800870508000716080045
:02400E00C430BC
:00000001FF
